{
  "_format": "hh-sol-artifact-1",
  "contractName": "TheBank",
  "sourceName": "contracts/TheBank.sol",
  "abi": [
    {
      "inputs": [],
      "name": "deposit",
      "outputs": [],
      "stateMutability": "payable",
      "type": "function"
    },
    {
      "inputs": [],
      "name": "totalBalance",
      "outputs": [
        {
          "internalType": "uint256",
          "name": "",
          "type": "uint256"
        }
      ],
      "stateMutability": "view",
      "type": "function"
    },
    {
      "inputs": [],
      "name": "withdrawal",
      "outputs": [],
      "stateMutability": "nonpayable",
      "type": "function"
    }
  ],
  "bytecode": "0x608060405234801561001057600080fd5b50610557806100206000396000f3fe6080604052600436106100345760003560e01c8063ad7a672f14610039578063d0e30db014610064578063d4e932921461006e575b600080fd5b34801561004557600080fd5b5061004e610085565b60405161005b9190610308565b60405180910390f35b61006c61008d565b005b34801561007a57600080fd5b5061008361012f565b005b600047905090565b670de0b6b3a76400003410156100d8576040517f08c379a00000000000000000000000000000000000000000000000000000000081526004016100cf90610380565b60405180910390fd5b346000803373ffffffffffffffffffffffffffffffffffffffff1673ffffffffffffffffffffffffffffffffffffffff168152602001908152602001600020600082825461012691906103cf565b92505081905550565b670de0b6b3a76400006000803373ffffffffffffffffffffffffffffffffffffffff1673ffffffffffffffffffffffffffffffffffffffff1681526020019081526020016000205410156101b8576040517f08c379a00000000000000000000000000000000000000000000000000000000081526004016101af9061044f565b60405180910390fd5b60008060003373ffffffffffffffffffffffffffffffffffffffff1673ffffffffffffffffffffffffffffffffffffffff16815260200190815260200160002054905060003373ffffffffffffffffffffffffffffffffffffffff1682604051610221906104a0565b60006040518083038185875af1925050503d806000811461025e576040519150601f19603f3d011682016040523d82523d6000602084013e610263565b606091505b50509050806102a7576040517f08c379a000000000000000000000000000000000000000000000000000000000815260040161029e90610501565b60405180910390fd5b60008060003373ffffffffffffffffffffffffffffffffffffffff1673ffffffffffffffffffffffffffffffffffffffff168152602001908152602001600020819055505050565b6000819050919050565b610302816102ef565b82525050565b600060208201905061031d60008301846102f9565b92915050565b600082825260208201905092915050565b7f63616e6e6f74206465706f7369742062656c6f77203120657468657200000000600082015250565b600061036a601c83610323565b915061037582610334565b602082019050919050565b600060208201905081810360008301526103998161035d565b9050919050565b7f4e487b7100000000000000000000000000000000000000000000000000000000600052601160045260246000fd5b60006103da826102ef565b91506103e5836102ef565b92508282019050808211156103fd576103fc6103a0565b5b92915050565b7f6d7573742068617665206174206c65617374206f6e6520657468657200000000600082015250565b6000610439601c83610323565b915061044482610403565b602082019050919050565b600060208201905081810360008301526104688161042c565b9050919050565b600081905092915050565b50565b600061048a60008361046f565b91506104958261047a565b600082019050919050565b60006104ab8261047d565b9150819050919050565b7f7472616e73616374696f6e206661696c65640000000000000000000000000000600082015250565b60006104eb601283610323565b91506104f6826104b5565b602082019050919050565b6000602082019050818103600083015261051a816104de565b905091905056fea2646970667358221220867ae8c67439b7978f3f06c0a6370d38b006c37afb3f322b642bbb9d96ab39bd64736f6c63430008140033",
  "linkReferences": {},
  "deployedLinkReferences": {}
}